:100000000C9499010C94E0010C94E0010C94E00133
:100010000C94E0010C94E0010C94E0010C94E001DC
:100020000C94E0010C94E0010C949B1D0C946F1E49
:100030000C94C2140C94E0010C94E0010C94E001C7
:100040000C94E0010C94E0010C94E0010C94E001AC
:100050000C94E0010C940D150C94E0010C94E0015B
:100060000C94E0010C94E0010C94E0010C94E0018C
:100070000C94E0010C94E0010C94E0010C94E0017C
:100080000C94E0010C94E0010C94E0010C94E0016C
:100090000C94E0010C94E0010C94E0010C94E0015C
:1000A0000C94E0010C94E0010C94E0012900140090
:1000B0001A000800150017001C0018000C001200A0
:1000C00013002A002B0004001600070009000A0094
:1000D0000B000D000E000F0033003400E1001D0086
:1000E0001B00060019000500110010003600370043
:1000F00052002800E000E300E200390001512C002A
:10010000000002513800500051004F0035021E021D
:100110001F022002210222022302240225022602BB
:1001200027024C0035001E001F0020002100220085
:10013000230024002500260027000100E100010023
:1001400001000100010001000100010001000100A7
:10015000A900AE0001000100010001000100010042
:10016000000001000100AC00AA00AB0001003A0051
:100170003D004000430068002F02300231022D0292
:100180002E024C0001003B003E004100440069008B
:100190002F00300038002D002E00490001003C00E7
:1001A0003F00420045006A000100010001004B00D1
:1001B0004B0046000100010001000100005C01004D
:1001C0000000010001004A004E00AE000E03630073
:1001D0006F00640065003400300000000603730007
:1001E000640000000403090409023B00020100A0AE
:1001F000FA090400000103010100092111010001B5
:100200002240000705810308000A090401000103D8
:1002100000000009211101000122BC000705820332
:1002200020000A1201100100000008EDFE606001CC
:10023000000102000105010902A10185020901A1D5
:10024000000509190129051500250195057501818C
:1002500002950175038101050109300931158125D8
:100260007F95027508810609381581257F950175EE
:10027000088106050C0A38021581257F950175084D
:100280008106C0C005010980A101850319012AB7B3
:1002900000150126B700950175108100C0050C09F5
:1002A00001A101850419012AA002150126A00295C9
:1002B0000175108100C005010906A101850505072A
:1002C00019E029E715002501950875018102050748
:1002D000190029EF1500250195F075018102050827
:1002E0001901290595057501910295017503910183
:1002F000C005010906A101050719E029E715002538
:10030000019508750181029501750881010507199C
:100310000029FF150026FF009506750881000508D5
:100320001901290595057501910295017503910142
:10033000C00011241FBECFEFDAE0DEBFCDBF04B690
:1003400003FE27C08091760290917702A0917802F7
:10035000B09179028730904BA740B04BD1F4109206
:10036000760210927702109278021092790214BEEF
:1003700084B7877F84BF0FB6F894A89580916000FA
:10038000886180936000109260000FBEE0E0F8E3A7
:10039000099511E0A0E0B1E0E6E7F1E402C00590C4
:1003A0000D92A838B107D9F722E0A8E8B1E001C062
:1003B0001D92A637B207E1F70E94DD1A0C94912036
:1003C0000C940000539A529A08950895089581E07C
:1003D0000895CF92DF92EF92FF926B017C010E9411
:1003E000AF12813021F0823029F05B9801C05B9A16
:1003F0005A9802C05A9A5B98C701B601FF90EF90D5
:10040000DF90CF90089581E008950C94E70108955E
:100410000C9407021F93CF93DF9300D000D00F926C
:10042000CDB7DEB749835A836B8330919E018981B2
:100430009A8131111DC06623B9F02223A9F00E94D0
:100440006B11182F682F89819A810E941711698179
:100450007A81812F0F900F900F900F900F90DF9166
:10046000CF911F910C94BA020E944311182FEFCF25
:100470000E946B1169817A81EDCFFC01262F4081AA
:1004800051816281738184810C940A02CF93DF933E
:10049000EC0160E00E943D02BE01DF91CF910C941F
:1004A00008020E94FC12811102C00E94AA130C943F
:1004B000C5040C94C70408950E94800C0E945B023E
:1004C0002FEF84E39CE0215080409040E1F700C092
:1004D00000000C9431150F931F93CF93DF93EC0121
:1004E00061E00E943D028C01BE010E94050288234A
:1004F00029F1BE01C8010E946F068823F9F0BE01F0
:10050000C8010E94C1068823C9F0BE01C8010E942B
:10051000E407882399F08A81882339F001158CE556
:10052000180751F00F3D1C4579F0CE01DF91CF91B6
:100530001F910F910C9403020E945C0280E0DF91F6
:10054000CF911F910F9108950E94AA13F7CF08959C
:100550000C94A70281E008950C94AA02CF93C82FAF
:100560000E94A8028C2FCF910C94AC0290E080E006
:1005700008950895972F70E02CE0929F600D711DF3
:100580001124FB0190E3899FE00DF11D1124EE0F72
:10059000FF1FE455FF4F859194910895FC01EE0FE4
:1005A000FF1FE453FE4F859194910895CF93DF93FD
:1005B0000E94BA020E94EB03EC01811520E592072C
:1005C00008F042C0811530E4930708F0BDC0883EB2
:1005D000910528F5803E910508F09DC0883A910567
:1005E00088F4853A910508F08FC08130910509F4AF
:1005F00092C0009709F48FC0049708F08CC0D0E037
:10060000C0E089C08F3B910508F489C0805C9109E6
:10061000C03CD105A0F30E94CE02EC017CC0811544
:10062000904250F4C11581E0D80708F074C0C03F73
:10063000D10528F3D0656FC0C11590E3D90708F044
:1006400079C0CE019F70E7CF811525E5920758F557
:10065000811534E5930708F0A6C0811542E594079B
:1006600050F4C11581E5D80708F471C0DC2FCC2700
:10067000C16FD06A50C0982F969596959E012370B1
:100680003327C115D34508F07FC0C1E0D0E002C0D8
:10069000CC0FDD1F2A95E2F720E2929FC0011124C2
:1006A000C82BD92B6FC0C11589E5D807A8F4C1158F
:1006B00098E5D90708F07CC0C11526E5D20708F0F7
:1006C0009ECF8C2F0E948204C82FD0E0DC2FCC2735
:1006D000CC27DF71D0621FC0C1153AE5D30708F4FB
:1006E0006CC0CE0190568115904208F088CF8D2FB6
:1006F0008F710E94820490E0982F882788279F712D
:100700009C012C2BE901E6CFC55AD0E0CD5BDE4F32
:10071000C881D0E0D064CE01DF91CF910895C85A4E
:10072000D0E0CC0FDD1FCB5EDE4F0990D881C02D0D
:10073000D464F1CFCE019927D3FF03C0EC01D86C6C
:10074000EACFEC01D06CE7CFDF70D06AE4CFCE0106
:10075000E4E096958795EA95E1F783702C2F26952E
:100760002695237090E2299F90011124382B8C2F1D
:100770008370C1E0D0E002C0CC0FDD1F8A95E2F7A4
:10078000C22BD32BDC68C7CFC1E0D0E002C0CC0FB6
:10079000DD1F2A95E2F730E2939FC0011124C82B98
:1007A000D92BDA68B8CFD82FCC27C46FD06AB3CF93
:1007B000DC2FCC27C06FD06AAECF8C2F8F700E94F9
:1007C000820434E0D695C7953A95E1F7CF709C2F17
:1007D000EC01D069A0CF82389105B1F1B0F481333A
:1007E000910509F475C048F48932910509F469C08E
:1007F0008A32910509F473C008958533910509F48F
:1008000059C08933910501F10895833E9105A9F1FD
:1008100038F4803E9105F9F0823E910549F1089542
:10082000863E9105A9F1873E9105C9F1843E910567
:1008300019F52091680221FF1FC08091670284FD95
:1008400014C087EE90E00895209167022370A1F014
:1008500080EE90E008952091670220FD47C030911E
:10086000680230FF09C024FF44C090E080E004C06B
:100870002091670222FDF7CF08952091670222FDA3
:100880003BC03091680230FDE3CF24FFF5CFEDCFC0
:100890002091670223FFF0CF24FDE7CFD2CF209134
:1008A000670223FD2CC03091680231FFEECF84EE49
:1008B00090E008952091670225FFDECF89E290E065
:1008C00008952091670225FFD7CF85E390E0089532
:1008D0002091670226FFD0CF8AE290E00895209110
:1008E000670226FFC9CF81E390E0089589E390E095
:1008F000089583EE90E0089582EE90E0089586EEEC
:1009000090E008959091670292FF06C0282F287109
:100910002830F9F4877F846093FF06C0282F287160
:100920002831F1F4877E84612091680220FF06C09F
:10093000382F38713830D9F4877F816021FF06C0A5
:10094000282F28712831D1F4877E816194FD877E1C
:100950000895282F24712430F9F68B7F8860DCCF2E
:10096000282F2471243101F78B7E8861DDCF382F49
:100970003171313019F78E7F8860E0CF282F2171D7
:10098000213121F78E7E8861E1CF0C94E5010C9432
:10099000E601E82FF0E0EE0FFF1FE55AFD4F8081E2
:1009A00091810895089580EA8A95F1F70895F89461
:1009B000E82FE295EF70F0E031A1282F2F7081E051
:1009C00090E001C0880F2A95EAF7982F909593231D
:1009D00091A392A1892B82A378940895CF93DF935A
:1009E00081E90E94D70480E90E94D70484E90E942B
:1009F000D70486E60E94D704C6E4D1E089910E941C
:100A0000D70481E0C235D807C9F71092540210927A
:100A1000530210925C0210925B02109256021092E6
:100A2000550210925E0210925D02109258021092CE
:100A300057021092600210925F0210925A021092B6
:100A40005902109262021092610284E00E94AA058B
:100A5000DF91CF910C945102AF92BF92DF92EF924F
:100A6000FF920F931F93CF93DF93C2E5D1E003E58D
:100A700012E0D12CEE24E394F12C8991F894E82F24
:100A8000E295EF70F0E021A18F70A70102C0440F42
:100A9000551F8A95E2F7CA01922F982B91A392A134
:100AA0008095892382A378940E94D304E6E4F1E040
:100AB00030E020E0B12CA12C4191A42FA295AF7081
:100AC000B0E090968C9190E04F7002C0959587951C
:100AD0004A95E2F780FD39C0C701022E02C0880F97
:100AE000991F0A94E2F7A82AB92A2F5F3F4F2C30AA
:100AF000310511F7FE01319780810E94D704F8017A
:100B000080819181A816B90619F1B182A08281E095
:100B1000D82A0E5F1F4FF1E0C635DF0709F0ADCFD1
:100B20002D2D44E06BE572E083E592E00E94AB0579
:100B30000E9459028D2DDF91CF911F910F91FF904F
:100B4000EF90DF90BF90AF90089590E080E0CBCF22
:100B500080E0DECF0895FF920F931F93CF93DF9332
:100B6000F82E092F162FD72FC42F222349F081E00A
:100B700080938A010E94F2149093890180938801E6
:100B800080918A018823A1F0809188019091890148
:100B90000E94FE14069760F0EF2DF02FA12FBD2FBD
:100BA00090E080E0D0E08C179D0744F010928A011D
:100BB000DF91CF911F910F91FF9008952191319175
:100BC0002D933D930196EFCFAF92BF92CF92DF92DC
:100BD000EF92FF920F931F93CF93DF937C015B0102
:100BE000C42FD22FFC0182818823F9F040938D011C
:100BF0000E94F21490938C0180938B0180E28C0F01
:100C0000883008F061C0C77081E001C0880FCA95C4
:100C1000EAF7DF91CF911F910F91FF90EF90DF9056
:100C2000CF90BF90AF900C94040A10918D011413D3
:100C300040C080918B0190918C010E94FE146C0148
:100C4000B701C5010E94F60EC816D90690F5C0E29C
:100C5000CD0F1D17B9F080E2810F883040F4177076
:100C600081E001C0880F1A95EAF70E940B0AC8308C
:100C700048F481E09D2F977001C0880F9A95EAF79C
:100C80000E94040A802F0E94F109C830E8F4D7704E
:100C900081E001C0880FDA95EAF7DF91CF911F91CB
:100CA0000F91FF90EF90DF90CF90BF90AF900C949A
:100CB0000B0A80E28C0F883038F4C77081E001C0E5
:100CC000880FCA95EAF7E9CFDF91CF911F910F9175
:100CD000FF90EF90DF90CF90BF90AF9008950F936B
:100CE0009C01CB01243F4CE5340759F1A8F4293D80
:100CF000FCE53F0701F12A3D4CE53407D1F1283DE1
:100D00003C4591F406E221EE41EE68ED7CE50E945F
:100D1000E40580E00F910895263FFCE53F07E9F0E8
:100D2000B0F0273F3C45F9F0FC018281882339F17E
:100D300010928D01EFCF07E225EE45EE69ED7CE5DF
:100D4000E6CF06E221EE40EE64EF7CE5E0CF07E27D
:100D500025EE44EE65EF7CE5DACF06E221EE42EEC9
:100D600066EF7CE5D4CF07E225EE46EE67EF7CE543
:100D7000CECF08E221E045EE6AED7CE5C8CF81E008
:100D8000C9CFCF93DF93EC01FB018281882309F463
:100D900019C1C230FCE5DF07C0F1C6319CE5D907B7
:100DA00030F09E012B5F3C452930310570F50E94E3
:100DB00019139093680280936702C031ECE5DE0757
:100DC00009F4CFC008F05BC0C8308CE5D80709F43F
:100DD000B6C088F5C430ECE5DE0709F4A8C0C0F45D
:100DE000C2308CE5D80709F49CC08091670282600C
:100DF000C330DC4509F498C0809167029091680285
:100E00000E9427130E94800C80E0DF91CF9108950B
:100E1000809167028061C630ECE5DE0709F484C08A
:100E2000809167028860C730DC4508F47DC08091FE
:100E30006702806279C0CC308CE5D80709F489C09C
:100E400070F4809167028C60CA30ECE5DE0709F42B
:100E50006BC008F478C0809167028E7F65C0CE3089
:100E60008CE5D80709F479C0809167028B7FCF3079
:100E7000DC4508F459C0809167028F7E55C0CC3F95
:100E8000ECE5DE0709F457C030F5C3318CE5D8072F
:100E900009F46FC078F4C131ECE5DE0709F465C0F0
:100EA000C231DC4509F0A8CF0E94800C8091670216
:100EB0008F773AC0C5318CE5D80709F462C008F4D1
:100EC00076C0809168028160CB3FDC4509F094CF09
:100ED0008093680291CFC115FDE5DF0709F44DC08D
:100EE00088F4809168028D7FCE3F9CE5D90781F31D
:100EF000809168028E7FCF3FDC4550F3809168027D
:100F00008360E6CFC230FDE5DF0709F459C008F47D
:100F100044C080E0C330DD4509F06ECF0E94AC13C1
:100F20006BCF8091670281608093670265CF80916B
:100F300067028460F9CF809168028260C9CF809196
:100F400067028064F1CF0E94800C80916702806804
:100F5000EBCF809167028D7FE7CF80916702877F1B
:100F6000E3CF809167028F7DDFCF809167028F7B17
:100F7000DBCF80916702837FD7CF809168028C7F1F
:100F8000A7CF8091670282FB992790F921E09227F1
:100F900090FB82F990FB83F9C7CF80916802982F6C
:100FA000909591708E7F892B90FB81F991CF0E9453
:100FB000800C90916702892F97FB87F98058B4CFF6
:100FC00081E0ACCF81E021CFCF93DF93EB0186317D
:100FD0009C4511F50E9400129A81992399F08A7A12
:100FE00091E009F490E090938E01811109C089E2AB
:100FF0000E94DB110E944C1280E0DF91CF91089596
:1010000085E3F6CF80918E01811104C089E20E94B0
:10101000E211F0CF85E3FBCF81E0EFCF9093940115
:10102000809393010895E0919301F091940130979A
:1010300021F00190F081E02D099480E00895E09185
:101040009301F0919401309799F02091140122239B
:1010500059F02091670227FF07C0DC012C911196FF
:101060002C93119725E02C930280F381E02D0994B5
:101070000895E0919301F0919401309739F022E0C6
:10108000DC012C930480F581E02D099408952091D2
:101090009101309192012817390771F090939201D4
:1010A00080939101E0919301F0919401309721F0A8
:1010B0000680F781E02D0994089520918F013091E9
:1010C00090012817390771F09093900180938F0158
:1010D000E0919301F0919401309721F00084F18523
:1010E000E02D0994089585B7806885BF85B780682D
:1010F00085BF089508950C94E20108950C947D082D
:101100000E9473080E947A080C947B0881E008957D
:101110000C948608089508950E94E9140E94EE0434
:101120000E94A0150C947E089F92AF92BF92CF921E
:10113000DF92EF92FF920F931F93CF93DF93CDB780
:10114000DEB72A970FB6F894DEBF0FBECDBF0E9460
:101150008A080E948B080E942C050E948808882318
:1011600009F470C056E9A52E51E0B52E10E000E05C
:10117000902E802F0E94C9046C01F501E190F1903E
:101180005F01E816F90609F457C08091220281FD3B
:101190000E94D20497012C253D2580E0EE24E394A3
:1011A000F12CA9014E215F21452B09F43FC08E830C
:1011B0009F82CE20DF2081E0CD2809F480E088875F
:1011C0000E94F2148160782F9A8789874E815F810F
:1011D00068858A850E944509000F111FF801EA56AB
:1011E000FE4F80819181E826F926F182E0820E94FB
:1011F0004E180E941308909195018917A1F10E9441
:101200001308809395012A960FB6F894DEBF0FBE9F
:10121000CDBFDF91CF911F910F91FF90EF90DF90A5
:10122000CF90BF90AF909F900C94AE028F5FEE0C6A
:10123000FF1C8C3009F0B5CF0F5F1F4F0430110534
:1012400009F096CF8FEF89838A831B820E94F21464
:101250008160782F9D838C8349815A816B818D8138
:101260000E944509C4CF2A960FB6F894DEBF0FBE80
:10127000CDBFDF91CF911F910F91FF90EF90DF9045
:10128000CF90BF90AF909F900895CF93DF93CDB74D
:10129000DEB72B970FB6F894DEBF0FBECDBF4F83DE
:1012A000588769877A878B871E821D8285E0FE01B9
:1012B0003796DE01119601900D928A95E1F74981EA
:1012C0005A816B817C818D819E812B960FB6F8941B
:1012D000DEBF0FBECDBFDF91CF910C94F90EFC01A4
:1012E000808191810C94AD11CF93C82F882309F48C
:1012F00047C08CEF8C0F813AA0F46C2F80910001D5
:10130000909101010E94C513882329F08C2F0E941F
:10131000E2110E944C128C2F0E94DB11CF910C9491
:101320004C1280E28C0F883048F4C77081E001C015
:10133000880FCA95EAF70E940312F0CFEBE5EC0F95
:10134000E33040F4F0E0EC57FE4F808190E0CF9125
:101350000C944708E8E5EC0FE73150F4F0E0EE0FAD
:10136000FF1FEA5AFE4F80819181CF910C945D0856
:10137000C03F30F08C2F0E944817CF910C94331847
:10138000CF910895882361F19CEF980F913A20F452
:101390000E94E2110C944C1290E2980F983050F495
:1013A000877091E001C0990F8A95EAF7892F0E9412
:1013B0000912F0CF9BE5980F933020F490E080E085
:1013C0000C94470898E5980F973120F490E080E05E
:1013D0000C945D08803F20F00E94B0170C943318E5
:1013E0000895CF93C82F0E947409C93349F42FEF91
:1013F00087EE93E0215080409040E1F700C000006C
:101400008C2FCF910C94C209882321F00E940312E3
:101410000C944C120895882321F00E9409120C9418
:101420004C120895BF92CF92DF92EF92FF920F93EA
:101430001F93CF93DF936C01D62FC72FFC0105813B
:1014400002950F70128111110E9420120E94F91151
:10145000E82E882391F01123D1F08C2F807F8034E7
:1014600021F080E28D0F883090F082E00E94971288
:101470000E94F91191E0E82EE926BC2EB2949FE07B
:10148000B922EB2DF0E0ED56FF4D0C943520E12C08
:10149000F4CF0C2F0F70C07F11F00295007F112345
:1014A000A9F0002359F080E28D0F883010F0D1119F
:1014B00009C0802F0E9403120E944C128D2F0E949F
:1014C000740914C0802F0E941312F6CF8D2F0E9432
:1014D000C209002359F080E28D0F883010F0D1113D
:1014E0002CC0802F0E9409120E944C122B2D2850D4
:1014F000330B2430310520F40E9413080E94AE0201
:10150000EE2009F49EC10E94F51180FD9AC1F601FA
:1015100012820E94EF110E947B10C6010E94420CB1
:101520000E94EF11DF91CF911F910F91FF90EF90EB
:10153000DF90CF90BF900C949C10802F0E941912C6
:10154000D3CFFC2FFF70FF2EC07FC03219F0F29472
:1015500080EFF822DD2369F0D13049F1112391F1B8
:10156000002351F1F601858180FFA8CF8F7085831C
:1015700023C0112381F0011106C00E9433128F296C
:101580000E94040AB3CF0130C1F70E9433128F29A1
:101590000E943912ABCF011106C00E9442128F2D5A
:1015A0000E940B0AA3CF013009F4A0CFF6CF11237C
:1015B00029F0063008F09ACF8F2DE2CF053008F0E1
:1015C00095CFEDCF002359F3D93349F4FFEF27EE40
:1015D00033E0F15020403040E1F700C000008D2F93
:1015E0000E94C20983CF8C2F86958695837069F0FF
:1015F000813009F07BCF8D2F9C2F9370111102C089
:1016000090E080E00E945D0871CF8D2F9C2F937039
:10161000111102C090E080E00E94470867CF8D2F33
:10162000112329F00E9448170E9433185FCF0E94AF
:10163000B017FACF8C2F837009F041C0111156CF2B
:101640004D2F429546954770440F440F0D2F0F7054
:1016500010E030E020E0042E04C0000F111F221F14
:10166000331F0A94D2F760E070E0CB01D4FF0FC0C3
:101670006FE070E080E090E004C0660F771F881F85
:10168000991F4A95D2F76095709580959095C6956B
:10169000C695C370602B712B822B932BC23049F0FF
:1016A00058F4C13019F00E942F1020CF0E941D1055
:1016B0001DCF0E9441101ACF0E941B1017CF869594
:1016C000112311F08C2F8170882309F40FCF4D2F37
:1016D000429546954770440F440F0D2F0F7010E050
:1016E00030E020E0042E04C0000F111F221F331F22
:1016F0000A94D2F760E070E0CB01D4FF0FC06FE036
:1017000070E080E090E004C0660F771F881F991F8B
:101710004A95D2F76095709580959095C695C69537
:10172000C370602B712B822B932BC23049F058F47D
:10173000C13019F00E94F210D9CE0E94E010D6CE2E
:101740000E940411D3CE0E945510D0CECF70112329
:1017500029F08C2F0E947B108D2F12CF8D2F0E948D
:101760000B0A8C2F0E949C10C1CED23F89F160F4ED
:10177000D03FC9F0D13F29F1112309F442C0011132
:101780009DCE8C2F8F7121C0D33F39F1D43FA1F76B
:10179000112369F1CF718C2F0E947B1063E08C2F95
:1017A0000E948212A3CE112341F0053008F09ECE94
:1017B0008C2F8F710E94BF1099CE063008F096CE04
:1017C000F7CF8C2F8F71112369F20E947B108ECE80
:1017D0008C2F8F711123C9F3C5CF112329F08C2FC2
:1017E0008F710E94661082CE0E9461107FCE81E0D0
:1017F0000E949712023008F479CE82E00E9497127C
:1018000075CE002359F0D93309F0E9CE8FEF97EE6A
:10181000E3E081509040E040E1F7DFCE8C2F8F7104
:10182000A1CF4C2F4F706D2FC6010E94B6020E94AF
:10183000930F5CCE4C2F4F706D2FC6010E94B902E2
:1018400055CEDF91CF911F910F91FF90EF90DF90D8
:10185000CF90BF9008950F931F93CF93DF93EC0128
:10186000688179818A810E94B7118C010E941611CA
:101870000E941A10B801CE01DF91CF911F910F91F4
:101880000C94120ACF93DF93EC018B819C81892BFE
:1018900029F08881998189238F3F59F4DF91CF9175
:1018A0000895CE010E942B0CCE01DF91CF910C94B4
:1018B0004602CE010E946B028111F3CF0E94F91102
:1018C000882361F38A81882349F382E0DF91CF91F5
:1018D0000C9497120E9420120E9430120E944C1207
:1018E0000E945A190E94331890E080E00E94470835
:1018F00090E080E00C945D080E94E9110C946A0C61
:101900000E9410120C947C0CE92FE295EF70E250CB
:10191000EE3070F4F0E0ED55FF4D0C943520803F33
:1019200019F020F4883E20F481E00895843FE1F32B
:1019300080E00895883EC0F3813FD1F7F5CF93FB57
:10194000882780F908950E94AD110C94840CCF93E0
:10195000DF9300D000D00F92CDB7DEB70F900F907D
:101960000F900F900F90DF91CF910895CF93DF9359
:1019700000D000D000D0CDB7DEB726960FB6F894D1
:10198000DEBF0FBECDBFDF91CF9108951F93CF93E0
:10199000DF93C0919F0116E08091A0018C1304C0D9
:1019A000DF91CF911F910895D0E01C9FF0011D9F02
:1019B000F00D1124EF55FE4F4081518162817381FA
:1019C000848195810E94B60C2196C770E5CF409125
:1019D000D1015091D2016091D3017091D4018091D5
:1019E000D5019091D6010C94B60C1F93CF93DF9341
:1019F0008091D601807FA9F48091D301882389F05A
:101A000080919F01C091A0016091D1017091D2019C
:101A1000A091D401B091D501D62FD72316E0C813D9
:101A200004C0DF91CF911F91089590E0109711F0BD
:101A3000DF3F19F401968770F2CF189F9001199F2C
:101A4000300D1124F901EF55FE4F41814713F2CFBC
:101A500040814613EFCF42814111ECCF4381548145
:101A60004A1B5B0B483C510528F78091D6018F70CB
:101A700080618093D601F901EA55FE4F80818F7015
:101A80008061808381ED91E00E94420CDF91CF91D3
:101A90001F910C94C60CAF92BF92CF92DF92EF923F
:101AA000FF920F931F93CF93DF93CDB7DEB761976C
:101AB0000FB6F894DEBF0FBECDBF8C0185E0F801F4
:101AC000DE011D9601900D928A95E1F7F8014081A3
:101AD0005181E28081EDC82E81E0D82E6091D40141
:101AE0007091D5016115710509F461C19091D10121
:101AF0002091D201892F82238F3F09F458C1A380FE
:101B0000B480F090D301F501E61BF70BFF2009F438
:101B1000FCC08091D601382F307FE83CF10508F0F9
:101B2000B2C0311179C0FE2C251323C0941321C0FB
:101B3000E1101FC08F7080618093D6010E94E70C76
:101B4000C6010E94420C8091D601F80185838F2D39
:101B500061960FB6F894DEBF0FBECDBFDF91CF9177
:101B60001F910F91FF90EF90DF90CF90BF90AF90BB
:101B70000895AB2829F0842F85238F3F09F033C1C6
:101B800080E0F82FF170DF2E80FF3CC080919F0134
:101B90002091A00136E0821315C04D875E878D85A8
:101BA0009E850E94AD11292F22952F702230F0F0D2
:101BB000243018F59F70F1F0F8019581907FD1F4F1
:101BC000D12C1EC090E0389FF001399FF00D1124F8
:101BD000EF55FE4F6181651306C06081641303C039
:101BE00062816E110FC001968770D5CF9F7011F082
:101BF000882331F3805E883018F3C8010E94420CBC
:101C0000FD2CA5CFEE2009F4A2CF8091D6018160F2
:101C10008093D601F12C9BCF251306C0941304C0EA
:101C2000F801EE2009F48DC04D875E878D859E8575
:101C30000E94A30C882319F1EE2009F18091D601AE
:101C4000803270F02091D1013091D20138872F83FA
:101C50001986BB86AA868C87CE0107960E94420C05
:101C600086E0F801A1EDB1E001900D928A95E1F7CF
:101C70000E94F50C0E94E70CFF24F39468CFC80182
:101C80000E94420CF9CF311113C07A2DB98AA88A6B
:101C90006E2D89890E94A70C81ED91E00E94420C73
:101CA00086E0F60111928A95E9F70E94E70CB2CF1F
:101CB00025130FC094130DC0E1100BC0F8018583EC
:101CC000C8010E94420C86E0F60111928A95E9F75C
:101CD0003ECF4D875E878D859E850E94A30C88230D
:101CE00071F2EE2061F28091D601803208F4B8CF13
:101CF0002091D1013091D2013A8329831B82BD8288
:101D0000AC828E83CE010196A9CFE83CF10508F0A4
:101D100041C0FE2CEE2009F4B2CF25132AC0941343
:101D200028C08091D60180FD1BC0982F907FC1F004
:101D3000F8018583903F31F0982F907F905F8F70EE
:101D4000892B8583C8010E94420C86E0F801A1ED31
:101D5000B1E001900D928A95E1F70E94E70CF7CE71
:101D600086E0F801A1EDB1E001900D928A95E1F7CE
:101D7000EECE4D875E878D859E850E94A30C8111D6
:101D80006FCF8091D60181608093D601C8010E94F7
:101D9000420CDDCE7A2DB98AA88A6E2D89890E94DF
:101DA000A70C86E0F60111928A95E9F7D6CFEE20CE
:101DB00009F465CF4D875E878D859E850E94A30CB3
:101DC000F82E882309F45BCF86E0F801A1EDB1E09D
:101DD00001900D928A95E1F781ED91E00E946F09E3
:101DE0000E94F50CBACF81E08E25CBCE88EC90E036
:101DF00008951F93CF93DF93CDB7DEB72C970FB61F
:101E0000F894DEBF0FBECDBF4F83588769877A87AE
:101E10008B879C87CE0107960E944B0D882369F023
:101E20008A859B85892B39F04F815885842F85239E
:101E30008F3F09F071C016E05FC086E0FE01379663
:101E4000DE01119601900D928A95E1F78A859B85B6
:101E5000892B89F38F81988589238F3F61F32091A6
:101E6000A00130E0C90101968770992740919F0138
:101E70004817190671F40E94800C1092A00110926C
:101E80009F0186E0E1EDF1E0DF011D928A95E9F71F
:101E9000D2CF96E0929FD001939FB00D1124AF5501
:101EA000BE4FFE01319601900D929A95E1F7809315
:101EB000A0010E94C60CBFCF819FC00111248F5585
:101EC0009E4F0E944B0D8823E9F0E0919F011E9FD9
:101ED000F0011124EF55FE4F4081518162817381E1
:101EE000848195810E94B60C80919F0190E00196BB
:101EF0008770992780939F0180919F019091A00105
:101F00008913DACF2C960FB6F894DEBF0FBECDBF83
:101F1000DF91CF911F91089569857A858B859C8586
:101F20000E94B60C88CFEF92FF920F931F93CF932E
:101F3000DF938C01892B81F0F12CEE24E394E801EE
:101F40002196F8018491843770F4843008F05FC0E2
:101F50008130B1F08230A1F1DF91CF911F910F91CB
:101F6000FF90EF900895853709F44CC008F43DC008
:101F70009CE7980F903780F78F770E94C20949C07D
:101F80000E5F1F4FFE01849190E2980F983060F42D
:101F90008770FE2D01C0FF0F8A95EAF78F2F0E94F0
:101FA00023120E944C1202C00E9474098F2D81508E
:101FB00030F2EFE9FFE03197F1F700C00000F7CF12
:101FC0000E5F1F4FFE01849190E2980F983050F4FD
:101FD0008770FE2D01C0FF0F8A95EAF78F2F0E94B0
:101FE0002912DFCF0E94C209E1CF0E5F1F4FFE0111
:101FF000C491C150D8F28FE99FE00197F1F700C07A
:102000000000F7CF0E5F1F4FFE01F490CFCF0E946C
:1020100074098E01CBCF08950C940B100E940C1004
:102020006093F9017093FA018093FB019093FC0196
:102030000C946A0C08950C940E100F931F9300914A
:10204000F9011091FA012091FB013091FC01602B04
:10205000712B822B932B1F910F910C940E100F93C9
:102060001F930091F9011091FA012091FB01309129
:10207000FC0160237123822393231F910F910C9401
:102080000E100F931F930091F9011091FA01209106
:10209000FB013091FC0160277127822793271F9154
:1020A0000F910C940E100C94E9010E945310609350
:1020B000F5017093F6018093F7019093F8010C9469
:1020C0006A0C60E070E0CB010C9455100F931F93E5
:1020D00041E050E060E070E08A019B0104C0000F25
:1020E000111F221F331F8A95D2F7C901B8011F9112
:1020F0000F910C9455100F931F9341E050E060E056
:1021000070E004C0440F551F661F771F8A95D2F7F1
:102110008091F5019091F601A091F701B091F8013D
:102120008A019B01082B192B2A2B3B2BC901B801D3
:102130001F910F910C9455100F931F9341E050E0A5
:1021400060E070E004C0440F551F661F771F8A953A
:10215000D2F7CB01BA01609570958095909500916A
:10216000F5011091F6012091F7013091F8016023FB
:102170007123822393231F910F910C9455100F9379
:102180001F9341E050E060E070E004C0440F551F31
:10219000661F771F8A95D2F78091F5019091F6011D
:1021A000A091F701B091F8018A019B010827192736
:1021B0002A273B27C901B8011F910F910C94551094
:1021C0000F931F930091F5011091F6012091F701F3
:1021D0003091F801602B712B822B932B1F910F9163
:1021E0000C9455100F931F930091F5011091F60177
:1021F0002091F7013091F80160237123822393230A
:102200001F910F910C9455100F931F930091F5019E
:102210001091F6012091F7013091F80160277127A4
:10222000822793271F910F910C94551008952CE04D
:10223000929F800D1124982F977041E001C0440FA8
:102240009A95EAF786958695869595E0899FF0019F
:102250001124E952FE4F90E080E070E05191DF01DF
:1022600011979B01082E02C0369527950A94E2F734
:10227000217021952527242325272C93019685302D
:10228000910561F708952CE0929F800D1124982FFD
:10229000977086958695869525E0829FF00111249A
:1022A000E952FE4F50E040E080E0219130E0092EFD
:1022B00002C0369527950A94E2F721703327042E41
:1022C00001C0220F0A94EAF7822B4F5F5F4F45301F
:1022D000510559F70895BF92CF92DF92EF92FF9286
:1022E0000F931F93CF93DF938C01C090F501D09093
:1022F000F601E090F701F090F8018091F9019091DA
:10230000FA01A091FB01B091FC01C82AD92AEA2A5E
:10231000FB2ACFE1D0E0BC2ED701C6010C2E04C0B1
:10232000B695A795979587950A94D2F780FD0EC02C
:10233000219788F7B12C8B2DDF91CF911F910F91B1
:10234000FF90EF90DF90CF90BF900895B8018C2F51
:102350000E94D602019761F3EECFCF93DF93EC0199
:102360000E946B11BE01DF91CF910C94D6021F9396
:10237000CF93DF93EB0190919E01992331F0CB0134
:10238000DF91CF911F910C94AD11882379F0CB018F
:102390000E946B11182F682FCE010E941711BE01E9
:1023A000812FDF91CF911F910C94D602CB010E9417
:1023B0004311182FF4CF682F8091000190910101F3
:1023C0000C944514682F80910001909101010C94A8
:1023D000501480910001909101010C945B14809144
:1023E000FD0185958595859508958091FD018770FE
:1023F00008959091FD01977081E009F480E00895BF
:1024000080912102089590912102892B80932102CD
:102410000895809590912102982390932102089528
:1024200010922102089590912002892B809320021E
:10243000089580959091200298239093200208950A
:1024400010922002089590911F02892B80931F0201
:102450000895809590911F02982390931F020895EC
:1024600010921F0208958091FE01089508950C9422
:1024700036129091FE01981721F08093FE010C9482
:10248000371208958091FE01882329F01092FE01F1
:1024900080E00C9437120895E0910001F091010161
:1024A000809121028083E0910001F09101018081FF
:1024B00090912002892B8083E0910001F09101012D
:1024C000808190911F02892B80839091FE01992336
:1024D00081F0E0910001F09101018081892B8083DE
:1024E00080910001909101010E94B11381110E941D
:1024F000421280910001909101010C941F080895EF
:102500000C947F1298E0899F90011124622B6093B4
:10251000FD010E947B108091FD0185958595859533
:102520000C9480121092FD0180E00C948012909126
:10253000FD01809589238093FD01282F277071F478
:10254000282F082E000C330B9217130639F08595AF
:10255000859585950E949C100C9492120895CF92B7
:10256000DF92EF92FF926C01EE24FF2420E0C11471
:10257000D104E104F10419F0C701B60120E1C72E2E
:10258000D82EE92EFF24C114D104E104F10419F07E
:10259000285FC701B6016B017C0154E0F694E79413
:1025A000D794C7945A95D1F7C114D104E104F1042A
:1025B00019F02C5FC701B6016B017C0142E0F69473
:1025C000E794D794C7944A95D1F7C114D104E10494
:1025D000F10419F02E5FC701B6019695879577959E
:1025E0006795672B682B692B09F02F5F822FFF906F
:1025F000EF90DF90CF90089590E080E00E94572008
:1026000021E08C3E9E4F09F020E0822F089582E069
:1026100090E00C944F20682F82E090E00C945D20B5
:1026200083E090E00C944F20682F83E090E00C94BE
:102630005D20CF9384E090E00E944F20C82F81E27C
:1026400090E00E944F20982F8C2FCF910895CF9328
:10265000C92F682F84E090E00E945D206C2F81E2FA
:1026600090E0CF910C945D20AB01BC018FE090E035
:102670000C946F20AB01BC0183E190E00C946F20BF
:1026800060E070E0CB010C943A1360E070E0CB01A5
:102690000E9434130C9440136CEE7EEF90E080E0C7
:1026A0000E947B2060E082E090E00E945D2060E07C
:1026B00083E090E00E945D201092F9011092FA01EF
:1026C0001092FB011092FC0160E084E090E00E9417
:1026D0005D2060E081E290E00E945D2060E085E0A6
:1026E00090E00E945D2060E086E090E00E945D2026
:1026F0006FEF87E090E00E945D2040E050E0BA017B
:1027000088E090E00E946F2060E08DE090E00E9401
:102710005D2040E050E0BA0188E190E00E946F2027
:1027200060E087E190E00E945D2040E050E0BA0167
:102730008CE190E00E946F2060E080E290E00E94D7
:102740005D2040E050E0BA0188E190E00E946F20F7
:102750000C9445130C944C13682F8EE090E00C946D
:102760005D20FC01329680911401882321F0809134
:1027700067029EE187FF96E080E0915008F408959B
:1027800021912223D1F38F5FF8CF662301F12091AD
:1027900014012223F1F02091670227FF1AC0462F6F
:1027A0004695469546954E3190F4677021E030E0AD
:1027B00002C0220F331F6A95E2F7840F911DFC01BE
:1027C000828190E02823392381E0232B69F480E083
:1027D0000895FC01329608962191261721F0E817FA
:1027E000F907D1F7F4CF81E008959C01FC013296FE
:1027F0009FEF80E04191461751F09F3F19F441113E
:1028000001C0982F8F5F8630A9F79F3F09F4089584
:10281000290F311D97FD3A95F90162830895FC0156
:10282000329608962191261303C0DF0111971C925E
:10283000E817F907B9F70895E62FE695E695E695C6
:10284000EE3168F4E80FF92FF11D677021E030E0F8
:1028500001C0220F6A95EAF78281822B8283089554
:10286000E62FE695E695E695EE3170F4E80FF92F40
:10287000F11D677021E030E001C0220F6A95EAF790
:1028800020958281282322830895209114012223F8
:1028900029F02091670227FD0C941C140C94F51369
:1028A00020911401222329F02091670227FD0C9426
:1028B00030140C940F14FC0132968091140188237B
:1028C00051F08091670287FF06C08EE1DF011D9203
:1028D0008A95E9F7089586E0F9CF089508950C9454
:1028E0006E140E946F1480916D02843049F1109231
:1028F000230288E190E020E40FB6F894A895809335
:1029000060000FBE2093600080E00E94AE020E9433
:102910006F1483B7817F846083BF83B7816083BF77
:102920007894889583B78E7F83BF0FB6F894A89567
:1029300080916000886180936000109260000FBEFB
:1029400008950895CF930E946D140E942C050E9453
:10295000A114C0E08C2F0E94C904892B31F4CF5FF1
:10296000C430C1F780E0CF91089581E0FCCF089595
:102970000C94B7140E94800C0E9413080E94AE02AF
:102980000C94B8141F921FB61F9211248F939F931B
:10299000AF93BF9380912302811113C08091630292
:1029A00090916402A0916502B09166024196A11DCA
:1029B000B11D8093630290936402A0936502B0936B
:1029C0006602BF91AF919F918F911F901FBE1F9084
:1029D000189582E084BD93E095BD9AEF97BD8093F2
:1029E0006E0008952FB7F89480916302909164026D
:1029F000A0916502B09166022FBF08959C014FB768
:102A0000F8948091630290916402A0916502B09164
:102A100066024FBF821B930B089578941F921FB6D6
:102A20001F9211248F939F93AF93BF938091630262
:102A300090916402A0916502B09166020196A11D79
:102A4000B11D8093630290936402A0936502B093DA
:102A50006602BF91AF919F918F911F901FBE1F90F3
:102A6000189581E08093E00080E28093D800109276
:102A7000C9008FE19EE40197F1F700C0000087E0F4
:102A800090EBDC018093760290937702A09378021A
:102A9000B093790288E19CE00FB6F894A8958093F2
:102AA00060000FBE90936000FFCFAF92BF92CF92B5
:102AB000DF92EF92FF920F931F93CF93C0E0CC244D
:102AC000C394D12CE82EF12C8C2F0E94C9045C01F8
:102AD00010E000E0C601002E02C0880F991F0A9482
:102AE000E2F78A219B21892B99F40F5F1F4F0C304D
:102AF000110581F7CF5FC43039F780E0CF911F9186
:102B00000F91FF90EF90DF90CF90BF90AF9008951E
:102B1000602F7C2F80E00E94BA02E816F90629F7A0
:102B200081E0ECCFCF93C82F8CE20E94551588230B
:102B300021F08C2FCF910C94551580E0CF91089502
:102B4000CF930E94FC12811102C00E94AA13C5E615
:102B500008C00E942C058FE39CE90197F1F700C0A3
:102B60000000C150B1F789E20E94921581110BC19A
:102B70008AE20E94921581110E94AA1385E00E94A8
:102B8000921581110E9431150E9407138093220231
:102B900087E00E949215882371F08BE10E949215C4
:102BA000882309F4CDC090912202892F8D7F91FF57
:102BB000826080932202809122020E940B130E9465
:102BC0001913909368028093670280EE0E94921519
:102BD000882341F090916702892F8E7F90FF81605A
:102BE0008093670289E30E949215882341F09091B7
:102BF0006702892F8D7F91FF82608093670282EE4A
:102C00000E949215882341F090916702892F8B7F53
:102C100092FF84608093670286EE0E94921588235B
:102C200041F090916702892F877F93FF886080939E
:102C3000670283EE0E949215882341F0909167020B
:102C4000892F8F7E94FF80618093670285E30E94C5
:102C50009215882341F090916702892F8F7D95FF0F
:102C600080628093670281E30E949215882341F07D
:102C700090916702892F8F7B96FF80648093670213
:102C800081E10E949215882341F090916702892F7B
:102C900097FB87F980588093670280916702909133
:102CA00068020E94271387E20E949215C82F8EE1C6
:102CB0000E9492158111C2608FE10E9492158111CC
:102CC000C46080E20E9492158111C86081E20E9476
:102CD00092158111C06182E20E9492158111C06239
:102CE00083E20E9492158111C06484E20E949215D1
:102CF000882309F442C0C0688C2F0E9414136C2FE3
:102D000070E090E080E00E941B106091F5017091EE
:102D1000F6018091F7019091F8010E9453108FE025
:102D20000E949215882319F081E00E94AC1385E17E
:102D30000E949215882339F180E0CF910C94AC1356
:102D40008EE00E949215882339F090912202892FFB
:102D50008B7F92FF84602DCF80E10E94921590912D
:102D60002202882329F0892F877F93FF886021CF53
:102D7000892F8E7F90FF81601CCFC111BDCF0E9433
:102D80001013682FBDCFCF91089580912A0280FF44
:102D900012C06091070185E0689FB001112475950C
:102DA00067957595679560387105A8F5611571058A
:102DB000A1F1862F089581FF09C06091070185E088
:102DC000689FB001112475956795EDCF609107015B
:102DD00082FD0AC0809129028823D1F090910601DA
:102DE00060910701891728F085E0689FB0011124E0
:102DF000DACF869FB001112485E0869F9001879FDE
:102E0000300D1124692F70E0C9010E942120CBCF21
:102E100065E070E0CECF8FE7089581E0089580915E
:102E20002A0280FF0CC06091030170E075956795E0
:102E3000759567956115710549F1862F089581FF94
:102E400006C06091030170E075956795F3CF6091BE
:102E5000030182FD0BC0909128029923A1F060919B
:102E6000020180910301961738F0682F70E06038F6
:102E7000710500F38FE70895899FC001112470E068
:102E80000E942120F4CF61E070E0D7CF81E0089567
:102E9000803F31F40E94C516819580932E020895DB
:102EA000813F19F40E94C516F8CF823F31F40E9489
:102EB000C516819580932D020895833F19F40E94D1
:102EC000C516F8CF893F29F40E940F1780932F026F
:102ED00008958A3F21F40E940F178195F7CF8B3F09
:102EE00031F40E940F1781958093300208958C3F32
:102EF00019F40E940F17F8CF843F31F480912C020F
:102F0000816080932C020895853F21F480912C02EA
:102F10008260F7CF863F21F480912C028460F1CF4C
:102F2000873F21F480912C028860EBCF883F21F409
:102F300080912C028061E5CF8D3F31F480912A028F
:102F4000816080932A0208958E3F21F480912A02A5
:102F50008260F7CF8F3FB9F780912A028460F1CF6A
:102F600090912D02803F59F480912E0287FF0DC071
:102F700010922E0291110BC01092290208C0813FBD
:102F800081F480912E0218169CF3992381F0809190
:102F90002F0290913002892B09F064C01092280210
:102FA0000895823F49F497FFF0CF10922D0280914F
:102FB0002E028111ECCFE0CF833F19F41916ACF348
:102FC000E4CF20912F02893F29F41216F4F61092D3
:102FD0002F02DBCF8A3F19F427FFD7CFF8CF2091FC
:102FE00030028B3F29F427FFD0CF10923002CDCF93
:102FF0008C3F19F41216CCF3C8CF843F31F4809182
:103000002C028E7F80932C02C0CF853F21F48091CB
:103010002C028D7FF7CF863F21F480912C028B7F8D
:10302000F1CF873F21F480912C02877FEBCF883F3F
:1030300021F480912C028F7EE5CF8D3F31F4809179
:103040002A028E7F80932A02A0CF8E3F21F48091A6
:103050002A028D7FF7CF8F3F09F097CF80912A0208
:103060008B7FF0CF08950E94F2149C0190912D0265
:1030700080912E02982B21F0309327022093260274
:1030800090912F0280913002982B21F030932502ED
:10309000209324028BE292E00C943908EF92FF9285
:1030A0000F931F93CF93DF9300D000D000D0CDB704
:1030B000DEB786E0EBE2F2E0DE01119601900D92C0
:1030C0008A95E1F7E0902D02F0902E0200912F02F8
:1030D0001091300210922D0210922E0210922F02A7
:1030E000109230028E2D8F2991F0809126029091BE
:1030F00027020E94FE14AC0190912902992309F441
:103100003FC0809108018417150608F447C0802F3E
:10311000812B91F080912402909125020E94FE144F
:10312000AC0190912802992309F477C080910401A1
:103130008417150608F47FC080912D0290912E020D
:10314000892B90912F02892B90913002892B11F0BD
:103150000E94331886E0FE013196ABE2B2E00190A6
:103160000D928A95E1F726960FB6F894DEBF0FBE52
:10317000CDBFDF91CF911F910F91FF90EF900895F8
:10318000209109018AE0289F900111242417350716
:1031900008F0BDCF9F5F9093290202C09F3FD1F7F7
:1031A000EE2059F00E94C5169FEF1E140CF491E01A
:1031B000899F802D112480932D02FF2059F00E94B9
:1031C000C5169FEF1F140CF491E0899F802D1124E8
:1031D00080932E0230912D02332309F498CF209151
:1031E0002E02222309F493CF45EB3403C0011124AE
:1031F000992359F090932D0245EB2403900111245B
:10320000332339F030932E0282CF81E080932D0258
:10321000F3CF81E080932E027ACF209105018AE0DE
:10322000289F900111242417350708F085CF9F5F50
:103230009093280202C09F3FD1F7002359F00E94CB
:103240000F179FEF10160CF491E0899F802D112429
:1032500080932F02112359F00E940F179FEF111630
:103260000CF491E0899F802D1124809330023091DD
:103270002F02332309F460CF20913002222309F476
:103280005BCF45EB3403C0011124992359F090938F
:103290002F0245EB240390011124332339F030939E
:1032A00030024ACF81E080932F02F3CF81E08093F8
:1032B000300242CF86E0EBE2F2E0DF011D928A9518
:1032C000E9F7109229021092280210922A0208951A
:1032D000809151020895CF93DF9300D00F92CDB724
:1032E000DEB790916D02943019F589837B836A83F0
:1032F00082E08093E9008FEF9091E800815095FD86
:1033000006C095ED9A95F1F700008111F5CF8091F7
:10331000E80085FF0DC050E040E063E070E0CE01C2
:1033200001960E94901B8091E8008E778093E800C0
:103330000F900F900F90DF91CF910895BC0184E022
:103340000C946B19BC0183E00C946B199C0182E016
:103350008093E9009FEF8091E800915085FD06C0C1
:1033600085ED8A95F1F700009111F5CF8091E80085
:1033700085FF0CC050E040E066E070E0C9010E94AB
:10338000901B8091E8008E778093E8000895CF939A
:10339000DF93EC01809114018823B1F180916702E1
:1033A00087FF32C060E282E08093E9008FEF909166
:1033B000E800815095FD06C095ED9A95F1F7000063
:1033C0008111F5CF8091E80085FF1BC08091140129
:1033D00070E050E040E0811104C050E040E068E05F
:1033E00070E0CE010E94901B8091E8008E77809360
:1033F000E80080E2FE01A1E3B2E001900D928A951F
:10340000E1F7DF91CF91089568E081E0CDCF809121
:103410006C02811109C00E94201D0E947D1D8091B7
:10342000E20084608093E200089510926C02089597
:10343000089508950C94BA1442E061EC81E00E9472
:103440009C1C42E261EC82E00C949C1C80916F0217
:10345000833009F45FC030F48130C1F1823009F467
:103460009BC008958A3009F487C08B3009F46DC081
:10347000893009F04EC080916E02813209F049C056
:103480008091720290917302029708F042C080917D
:10349000E800877F8093E8008091E80082FF35C0D4
:1034A0009091F3008091F200029729F48091F1004D
:1034B0008B7F813021F48091F100809351028091C3
:1034C000E8008B778093E8000C94D01C80916E020A
:1034D000813AF9F48091E800877F8093E800809139
:1034E000720290917302892B61F460E281E392E0B1
:1034F00070E00E94DF1B8091E8008B778093E800EA
:10350000089560E090E080E0F3CF80916D0281113A
:10351000C3CF089580916E02813AD9F780917202EB
:1035200090917302892BA9F78091E800877F80939F
:10353000E8008091E80080FFFCCF80911401809327
:10354000F1008091E8008E77BDCF80916E028132CC
:1035500001F78091720290917302892BD1F68091CC
:10356000E800877F8093E8000E94D01C8091700261
:10357000809314010C94800C80916E02813249F684
:103580008091E800877F8093E8000E94D01C8091A2
:10359000710280935202089580916E02813A09F07F
:1035A000B8CF8091E800877F8093E8008091E800A1
:1035B00080FFFCCF80915202C2CF84B7877F84BF47
:1035C0000FB6F894A89580916000886180936000A0
:1035D000109260000FBE80E890E00FB6F8948093E0
:1035E0006100909361000FBE0E9480080E94201D20
:1035F0000E947D1D8091E20084608093E2007894B7
:103600000E9406200E948C088AE091E00E940E0829
:1036100080916D02853039F00E9494080E948A08DA
:103620000E948B08F5CF0E94711480916B02882351
:1036300079F30E94A214882359F30E947A1BE8CFE1
:103640000C94221B292F33272330310519F168F4FC
:103650002130310509F444C02230310509F445C058
:1036600090E080E030E020E025C02132310549F1D2
:1036700022323105A9F780E490E021EF32E06115B4
:103680007105C1F08CEB90E025E332E0613071050B
:1036900089F0E6CF99278130910581F0009729F0D4
:1036A0000297F1F6ECECF1E002C0E4EEF1E0849177
:1036B00090E09F01FA01318320830895ECEDF1E061
:1036C000F6CF89E090E02AEF31E06115710591F3C2
:1036D00089E090E023E132E06130710559F3C0CF19
:1036E00082E190E023E232E0E5CF8BE390E028EE48
:1036F00031E0E0CF80E189BD82E189BD09B400FEFF
:10370000FDCF8091D8008F7D8093D8008091E0001C
:1037100082608093E0008091E00081FDFCCF0895FD
:10372000AF92BF92CF92DF92FF920F931F93CF93EE
:10373000DF936C01EB018A010E94EF1CF82E8111CE
:1037400023C00115110539F0F80180819181C81B52
:10375000D90BC80ED91EB12CA12C2097A9F08091AD
:10376000E80085FD22C08091E8008E778093E80014
:1037700001151105A1F0F80180819181A80EB91EF3
:10378000B182A08285E0F82E8F2DDF91CF911F911D
:103790000F91FF90DF90CF90BF90AF9008950E945F
:1037A000EF1C8823D1F2F82EEFCFF60181916F0143
:1037B0008093F1002197FFEFAF1ABF0ACECFFC0133
:1037C000809174029091750286179707A0F0611599
:1037D000710529F49091E8009E779093E80090E0BD
:1037E0006115710551F4911108C08091E80082FFC4
:1037F00034C080E00895BC01F2CF80916D0288232F
:10380000C1F18530C1F18091E80083FD30C0809125
:10381000E80082FDEACF8091E80080FFE1CF80914F
:10382000F3002091F200382F6115710519F028304E
:10383000310558F091E02830310509F090E02091F1
:10384000E8002E772093E800CBCF81918093F100A0
:10385000615071092F5F3F4FE7CF80916D02882340
:1038600041F0853041F08091E80083FFBECF81E0D8
:10387000089582E0089583E00895FC018091740228
:103880009091750286179707A0F06115710529F4CC
:103890008091E8008E778093E80090E061157105D3
:1038A00051F4911108C08091E80082FF35C080E09A
:1038B0000895BC01F2CF80916D028823C9F1853053
:1038C000C9F18091E80083FD31C08091E80082FD5C
:1038D000EACF8091E80080FFE1CF8091F300209152
:1038E000F200382F6115710519F02830310558F0B4
:1038F00091E02830310509F090E08091E8008E7762
:103900008093E800CBCF84918093F1003196615091
:1039100071092F5F3F4FE6CF80916D02882341F000
:10392000853041F08091E80083FFBDCF81E00895AC
:1039300082E0089583E00895982F973028F08F70E3
:103940008093E90081E008959093E900242F762F79
:1039500050E0981731F07091EC002091ED005091FB
:10396000F00021FD02C09F5FE8CF3091EB003E7F69
:103970003093EB003091ED003D7F3093ED003091BE
:10398000EB0031603093EB007093EC002093ED007E
:103990005093F0002091EE0027FDE5CF80E00895E0
:1039A00080916E0287FF13C08091E80082FF06C0FD
:1039B0008091E8008B778093E80004C080916D02CD
:1039C0008111F2CF089580916D028823D9F38091FF
:1039D000E80080FFF8CF8091E8008E77ECCF20914F
:1039E000E4003091E50095E6A9012091EC00822FDA
:1039F000817020FF06C08091E80080FF06C080E053
:103A000008952091E80022FD1AC080916D0288235C
:103A100089F0853089F08091EB0085FD0FC0209101
:103A2000E4003091E50042175307F9F29150E1F6B6
:103A300084E0089582E0089583E0089581E0089588
:103A40000E948E1D0E94961DE0EEF0E08081816054
:103A50008083E8EDF0E080818F77808319BCA7ED4B
:103A6000B0E08C918E7F8C9380818F7E80831092CA
:103A70006C0208950F931F93CF93DF930E948E1DC6
:103A80000E94961DC8EDD0E088818F778883888159
:103A90008068888388818F7D888319BC10926D022D
:103AA0001092690210926B0210926A0200EE10E00E
:103AB000F80180818B7F808388818160888342E0E8
:103AC00060E080E00E949C1CE1EEF0E080818E7F4F
:103AD0008083E2EEF0E08081816080838081886075
:103AE0008083F80180818E7F8083888180618883D4
:103AF000DF91CF911F910F910895E8EDF0E0808163
:103B00008F7E8083E7EDF0E080818160808384E0B8
:103B100082BF81E080936C020C943A1DE8EDF0E0E6
:103B200080818E7F80831092E20008951092DA00E7
:103B30001092E10008951F920F920FB60F92112478
:103B40002F933F934F935F936F937F938F939F93A5
:103B5000AF93BF93EF93FF938091E10082FF0BC07F
:103B60008091E20082FF07C08091E1008B7F80930B
:103B7000E1000E9405208091DA0080FF19C0809149
:103B8000D80080FF15C08091DA008E7F8093DA0024
:103B90008091D90080FF96C080E189BD82E189BD16
:103BA00009B400FEFDCF81E080936D020E94071AE8
:103BB0008091E10080FF19C08091E20080FF15C074
:103BC0008091E2008E7F8093E2008091E20080612C
:103BD0008093E2008091D80080628093D80019BC65
:103BE00085E080936D020E94191A8091E10084FFA4
:103BF0002BC08091E20084FF27C080E189BD82E173
:103C000089BD89B5982F917080FFFBCF8091D80036
:103C10008F7D8093D8008091E1008F7E8093E100BA
:103C20008091E2008F7E8093E2008091E2008160CB
:103C30008093E20080916902882309F449C084E0FE
:103C400080936D020E941A1A8091E10083FF29C0BF
:103C50008091E20083FF25C08091E100877F8093FF
:103C6000E10082E080936D02109269028091E10090
:103C70008E7F8093E1008091E2008E7F8093E2004E
:103C80008091E20080618093E20042E060E080E0A9
:103C90000E949C1C8091F00088608093F0000E943C
:103CA000181AFF91EF91BF91AF919F918F917F91E2
:103CB0006F915F914F913F912F910F900FBE0F9099
:103CC0001F90189519BC10926D020E94151A70CFA2
:103CD0008091E30087FD93E090936D02B3CF1F9234
:103CE0000F920FB60F9211242F933F934F935F9330
:103CF0006F937F938F939F93AF93BF93CF93DF93F4
:103D0000EF93FF93D091E900DF708091EC00C82F12
:103D1000C17080FDC0E81092E9008091F000877FBB
:103D20008093F00078940E94B31E1092E900809175
:103D3000F00088608093F000CD2BCF70C093E90035
:103D4000FF91EF91DF91CF91BF91AF919F918F91B3
:103D50007F916F915F914F913F912F910F900FBE87
:103D60000F901F9018951F93CF93DF93CDB7DEB7B9
:103D7000AA970FB6F894DEBF0FBECDBF8EE692E0D5
:103D80002091F100FC012193CF01F2E086379F07DB
:103D9000B9F70E94261A8091E80083FF1EC1809126
:103DA0006E0290916F029A3008F017C1E92FF0E08F
:103DB000EF54FF4D0C943520803899F0823809F08B
:103DC0000CC1809172028F70873008F006C1809319
:103DD000E9008091EB0085FB882780F91092E900CB
:103DE00006C080916A0290916B029111826090915D
:103DF000E800977F9093E8008093F1001092F10023
:103E00008091E8008E77E5C0882309F4D3C0823022
:103E100009F0E3C0809170028111D6C080917202D6
:103E20008F702FEF280F263008F0D7C08093E9005D
:103E30002091EB0020FFC8C0933031F48091EB005B
:103E400080628093EB00C0C09091EB0090619093F2
:103E5000EB0021E030E001C0220F8A95EAF72093C1
:103E6000EA001092EA008091EB008860EACF8111AD
:103E7000B4C0109170021F778091E3008078812B8D
:103E80008093E3008091E800877F8093E8000E94A0
:103E9000D01C8091E80080FFFCCF8091E300806817
:103EA0008093E30082E0111183E080936D0295C05E
:103EB0008058823008F091C0809170029091710218
:103EC0008C3D23E09207A1F583E08A838AE289830F
:103ED0004FB7F894DE01139620E03EE051E2E32F65
:103EE000F0E050935700E49120FF03C0E295EF709B
:103EF0003F5FEF708E2F90E0EA30C0F0C7968D9351
:103F00009D932F5F243159F74FBF8091E800877F41
:103F10008093E8006AE270E0CE0101960E94DF1B08
:103F20008091E8008B778093E80057C0C096E7CF78
:103F30006091720270917302AE014F5F5F4F0E94F9
:103F4000201BBC01892B09F448C09091E800977FA1
:103F50009093E80089819A810E943D1CE1CF8038CE
:103F6000E1F58091E800877F8093E8008091690205
:103F70008093F10045CF811130C090917002923052
:103F800060F58091E800877F8093E8009093690254
:103F90000E94D01C80916902882311F084E005C042
:103FA0008091E30087FDFACF81E080936D020E944B
:103FB0001C1A13C080917002813079F481E0933033
:103FC00009F080E080936B021092E9008091E80094
:103FD000877F8093E8000E94D01C8091E80083FFD7
:103FE0000AC08091E800877F8093E8008091EB0011
:103FF00080628093EB00AA960FB6F894DEBF0FBEE6
:10400000CDBFDF91CF911F9108950895CF938091F7
:104010006D028823A1F0C091E900CF709091EC006F
:10402000892F817090FD80E8C82B1092E900809163
:10403000E80083FD0E94B31ECF70C093E900CF91CA
:10404000089597FB072E16F4009407D077FD09D04A
:104050000E943B2007FC05D03EF4909581959F4F30
:104060000895709561957F4F0895EE0FFF1F05909D
:10407000F491E02D0994AA1BBB1B51E107C0AA1FB4
:10408000BB1FA617B70710F0A61BB70B881F991FF9
:104090005A95A9F780959095BC01CD010895F9999D
:1040A000FECF92BD81BDF89A992780B50895A8E109
:1040B000B0E042E050E00C948320262FF999FECF27
:1040C00092BD81BDF89A019700B4021639F01FBA6B
:1040D00020BD0FB6F894FA9AF99A0FBE0895039688
:1040E000272F0E945E200E945D20252F0E945E20C7
:1040F000242F0C945E200196272F0E945E200C94A2
:104100005D20DC01CB01FC01F999FECF06C0F2BDB8
:10411000E1BDF89A319600B40D9241505040B8F785
:104120000895F894FFCF490A490AA10AA10AF30A9F
:104130000F0B760A760A1A0BA60BB50BB50B110CF2
:10414000760A760A1A0C8F0C8F0C980C980C9A0C25
:10415000980C980C980C8F0C8F0C9F0C980C980C4A
:104160009F0CDC1E041FED1F041FED1F371F581F7F
:06417000ED1FAF1FBB1F95
:10417600FF012808641E140A321E6819C719A619F9
:10418600A2199E1901E200E900EA00B500B600B7DF
:1041960000CD008301CC008A019201940121022303
:1041A6000224022502260227022A02B300B4006F67
:1041B60000700081828397C63435F4F5F6F7313303
:1041C600323691909466E200E900EA00B500B60046
:1041D600B700CD008301CC008A019201940121022F
:1041E600230224022502260227022A02B300B40073
:0841F6006F007000818283005C
:00000001FF
